:020000040000FA
:06000000BEEF0DF012003E
:020006001200E6
:060008000EEF00F01200F3
:02000E000100EF
:0C001000AE1B0000A30100001100000066
:04001C00DACFE4FF54
:10002000E2CFDAFFE9CFE4FFEACFE4FFF6CFE4FF67
:10003000F7CFE4FFF5CFE4FFF3CFE4FFF4CFE4FF25
:10004000FACFE4FF00EE00F0100EE80403E3EECF79
:10005000E4FFFBD700EE10F0100EE80403E3EECF50
:10006000E4FFFBD7E6529EBA24D8E55200EE1FF01B
:10007000100EE80403E3E5CFEDFFFBD700EE0FF031
:10008000100EE80403E3E5CFEDFFFBD7E5CFFAFF61
:10009000E5CFF4FFE5CFF3FFE5CFF5FFE5CFF7FFC1
:1000A000E5CFF6FFE5CFEAFFE5CFE9FFE5CFDAFFE1
:1000B0001100D9CFE6FFE1CFD9FF020EE126A30E52
:1000C000E66E010EE66E8FD9E552E552F3CFDEFF04
:1000D000F4CFDDFFD9CFE9FFDACFEAFFEE50ED1024
:1000E00006E1050EE66EEFEC0CF0E55211D0DECF26
:1000F000E6FFDDCFE6FFA30EE66E010EE66EAB0E69
:10010000E66E010EE66E3CD8106E060EE15E1050F3
:10011000020EE15C02E2E16AE552E16EE552E7CFF0
:10012000D9FF1200D9CFE6FFE1CFD9FFFD0EDBCF1B
:10013000E9FFFE0EDBCFEAFF000EEE6E010EED6E64
:10014000FD0EDBCFE9FFFE0EDBCFEAFF020EE92654
:10015000000EEA22500EEE6E010EED6EFD0EDBCFAC
:10016000E9FFFE0EDBCFEAFF040EE926000EEA22CD
:10017000EE6AEE6AEE6AEE6AE552E7CFD9FF120048
:10018000D9CFE6FFE1CFD9FFFD0EDBCFE9FFFE0EB1
:10019000DBCFEAFFEF50020A01E180D0030A2DE035
:1001A000010A01E0FCD0FDEC0CF00450E66EF90E03
:1001B000DBCF10F0FA0EDBCF11F0FD0EDBCFE9FF45
:1001C000FE0EDBCFEAFFEE521050EE24E76E115028
:1001D000EE20EA6EE7CFE9FFE552E750EF6E060E3C
:1001E0000101A15D01E1F29EFD0EDBCFE9FFFE0EF4
:1001F000DBCFEAFF010EEF6ED2D0FDEC0CF0045025
:10020000E66EF90EDBCF10F0FA0EDBCF11F0FD0E2B
:10021000DBCFE9FFFE0EDBCFEAFFEE521050EE24FB
:10022000E76E1150EE20EA6EE7CFE9FFE552E750A6
:10023000EF6EF90EDBCF14F0FA0EDBCF15F0FD0EEA
:10024000DBCFE9FFFE0EDBCFEAFFEE521450EE24C7
:10025000E76E1550EE20EA6EE7CFE9FFEFCF10F022
:10026000116A126A136AFD0EDBCFE9FFFE0EDBCFC7
:10027000EAFF050EE926000EEA2210C0EEFF11C0CB
:10028000EEFF12C0EEFF13C0EEFFFD0EDBCFE9FF65
:10029000FE0EDBCFEAFF020EEF6E81D0010E106E74
:1002A000116A126A136AFD0EDBCFE9FFFE0EDBCF87
:1002B000EAFF050EE926000EEA22EE501026EE5067
:1002C0001122EE501222EE501322FD0EDBCFE9FF79
:1002D000FE0EDBCFEAFFEE521050EE5C1150EE58EE
:1002E0001250EE581350EE5825E2FDEC0CF004507D
:1002F000E66EF90EDBCF10F0FA0EDBCF11F0FD0E3B
:10030000DBCFE9FFFE0EDBCFEAFFEE521050EE240A
:10031000E76E1150EE20EA6EE7CFE9FFE552E750B5
:10032000EF6EFD0EDBCFE9FFFE0EDBCFEAFF020E24
:10033000EF6E34D0FDEC0CF00450E66EF90EDBCF1E
:1003400010F0FA0EDBCF11F0FD0EDBCFE9FFFE0E51
:10035000DBCFEAFFEE521050EE24E76E1150EE2094
:10036000EA6EE7CFE9FFE552E750EF6EF90EDBCF1B
:10037000E6FFFA0EDBCFE6FFFB0EDBCFE6FFFC0E5F
:10038000DBCFE6FFBFD8E552E552E552E552FD0E60
:10039000DBCFE9FFFE0EDBCFEAFFEF6A00D0FD0EF8
:1003A000DBCFE9FFFE0EDBCFEAFFEF500CE1FD0EE5
:1003B000DBCFE9FFFE0EDBCFEAFFEE52EE6AEE6A1C
:1003C000EE6AEE6A0CD0FD0EDBCFE9FFFE0EDBCF4E
:1003D000EAFFEE52EE2A000EEE22EE22EE22E55267
:1003E000E7CFD9FF1200D9CFE6FFE1CFD9FF010E49
:1003F000106E116A126A136AFD0EDBCFE9FFFE0E62
:10040000DBCFEAFF040EE926000EEA22EE501016BA
:10041000EE501116EE501216EE501316030E101871
:1004200005E1115003E1125001E1135020E0010EEB
:10043000146E156A166A176AFD0EDBCFE9FFFE0E11
:10044000DBCFEAFF040EE926000EEA22EE50141676
:10045000EE501516EE501616EE501716010E141823
:1004600005E1155003E1165001E1175010E1FD0EB2
:10047000DBCFE9FFFE0EDBCFEAFFEECF10F0EFCFD0
:1004800011F010C0F3FF11C0F4FF38D037D0020EC6
:10049000106E116A126A136AFD0EDBCFE9FFFE0EC1
:1004A000DBCFEAFF040EE926000EEA22EE5010161A
:1004B000EE501116EE501216EE501316020E1018D2
:1004C00005E1115003E1125001E1135014E1FD0E5A
:1004D000DBCFE9FFFE0EDBCFEAFF020EE926000EBE
:1004E000EA22EECF10F0EFCF11F010C0F3FF11C0F1
:1004F000F4FF04D003D0F36AF46A00D0E552E7CFEA
:10050000D9FF1200D9CFE6FFE1CFD9FFFB0EDBCF39
:1005100010F0FC0EDBCF11F0000E101802E1010EFE
:1005200011182AE1020E106E116A126A136AFD0E8A
:10053000DBCFE9FFFE0EDBCFEAFF040EE926000E5B
:10054000EA22EE501016EE501116EE501216EE5032
:100550001316FD0EDBCFE9FFFE0EDBCFEAFF040E24
:10056000E926000EEA2210C0EEFF11C0EEFF12C015
:10057000EEFF13C0EEFF29D0010E106E116A126A51
:10058000136AFD0EDBCFE9FFFE0EDBCFEAFF040EA0
:10059000E926000EEA22EE501016EE501116EE502B
:1005A0001216EE501316FD0EDBCFE9FFFE0EDBCF69
:1005B000EAFF040EE926000EEA2210C0EEFF11C089
:1005C000EEFF12C0EEFF13C0EEFFE552E7CFD9FFFA
:1005D0001200D9CFE6FFE1CFD9FF010E106E116AEC
:1005E000126A136AFD0EDBCFE9FFFE0EDBCFEAFFD6
:1005F000040EE926000EEA22EE501016EE501116F7
:10060000EE501216EE501316010E101805E111509F
:1006100003E1125001E1135014E1FD0EDBCFE9FFBD
:10062000FE0EDBCFEAFF020EE926000EEA22EECF35
:1006300010F0EFCF11F010C0F3FF11C0F4FF5BD04A
:100640005AD0020E106E116A126A136AFD0EDBCFC9
:10065000E9FFFE0EDBCFEAFF040EE926000EEA22D8
:10066000EE501016EE501116EE501216EE501316F4
:10067000020E101805E1115003E1125001E1135070
:1006800010E1FD0EDBCFE9FFFE0EDBCFEAFFEECF80
:1006900010F0EFCF11F010C0F3FF11C0F4FF2BD01A
:1006A0002AD0106A116A126A136AFD0EDBCFE9FFC5
:1006B000FE0EDBCFEAFF040EE926000EEA22EE5022
:1006C0001016EE501116EE501216EE501316105072
:1006D0001110121013100FE1FD0EDBCFE9FFFE0E1B
:1006E000DBCFEAFFEECF10F0EFCF11F010C0F3FF39
:1006F00011C0F4FF00D0E552E7CFD9FF1200D9CFE7
:10070000E6FFE1CFD9FFFB0EDBCF10F0FC0EDBCF15
:1007100011F0000E101802E1010E11182AE1010E6D
:10072000106E116A126A136AFD0EDBCFE9FFFE0E2E
:10073000DBCFEAFF040EE926000EEA22EE5010128B
:10074000EE501112EE501212EE501312FD0EDBCFCE
:10075000E9FFFE0EDBCFEAFF040EE926000EEA22D7
:1007600010C0EEFF11C0EEFF12C0EEFF13C0EEFF8F
:1007700029D0020E106E116A126A136AFD0EDBCFC9
:10078000E9FFFE0EDBCFEAFF040EE926000EEA22A7
:10079000EE501012EE501112EE501212EE501312D3
:1007A000FD0EDBCFE9FFFE0EDBCFEAFF040EE926EC
:1007B000000EEA2210C0EEFF11C0EEFF12C0EEFFE5
:1007C00013C0EEFFE552E7CFD9FF1200D9CFE6FF05
:1007D000E1CFD9FF040EE126050EE76EFD0EDBCF5B
:1007E000E9FFFE0EDBCFEAFFE750E926000EEA2222
:1007F000EFCF10F0116A126A136A180E1F0B07E090
:10080000D8901036113612361336E806F9E1040E88
:10081000E76EFD0EDBCFE9FFFE0EDBCFEAFFE75010
:10082000E926000EEA22EFCF14F0156A166A176A5D
:10083000100E1F0B07E0D8901436153616361736F3
:10084000E806F9E114501012155011121650121248
:1008500017501312030EE76EFD0EDBCFE9FFFE0EFD
:10086000DBCFEAFFE750E926000EEA22EFCF18F0CF
:10087000196A1A6A1B6A080E1F0B07E0D89018360F
:1008800019361A361B36E806F9E1185010121950BD
:1008900011121A5012121B501312020EE76EFD0EA7
:1008A000DBCFE9FFFE0EDBCFEAFFE750E926000EC3
:1008B000EA22EFCF1CF01D6A1E6A1F6A1C5010123C
:1008C0001D5011121E5012121F50131210C0DFFFC4
:1008D000010E11C0DBFF020E12C0DBFF030E13C0BE
:1008E000DBFFDECF04F0DECF05F0DECF06F0DDCF9C
:1008F00007F0DD52DD52040EE15C03E200D0E16A54
:10090000E552E16EE552E7CFD9FF1200D9CFE6FFFD
:10091000E1CFD9FFE652010EE76EFD0EDBCFE9FF16
:10092000FE0EDBCFEAFFE750E926000EEA22EF5089
:10093000FB0FDF6EDF5000D0E552E552E7CFD9FF65
:100940001200D9CFE6FFE1CFD9FF040EE126FD0E5C
:10095000DBCFE6FFFE0EDBCFE6FFD8DFE552E55248
:10096000DF6EFD0EDBCFE9FFFE0EDBCFEAFFEF040B
:100970001EE1060EE76EFD0EDBCF10F0FE0EDBCFA4
:1009800011F0E7501026000E1122010E10C0DBFFFF
:10099000020E11C0DBFF010EDBCF10F0020EDBCF29
:1009A00011F010C0F3FF11C0F4FF04D003D0F36ABC
:1009B000F46A00D0040EE15C02E2E16AE552E16E05
:1009C000E552E7CFD9FF1200D9CFE6FFE1CFD9FF3B
:1009D000FD0EDBCFE6FFFE0EDBCFE6FFFB0EDBCF2F
:1009E000E6FFFC0EDBCFE6FF91DFE552E552E66E57
:1009F000FB0EDBCFE6FFFC0EDBCFE6FFA2DFE5520E
:100A0000E552F3CF10F0F4CF11F010C0E6FF11C0A3
:100A1000E6FFFB0EDBCFE6FFFC0EDBCFE6FFD6DE0C
:100A2000E552E55204C012F005C013F006C014F000
:100A300007C015F012C0E6FF13C0E6FF14C0E6FFC2
:100A400015C0E6FF58EC05F0166E090EE15E165073
:100A5000E552E7CFD9FF1200D9CFE6FFE1CFD9FFAA
:100A6000030E106E116A126A136AFD0EDBCFE9FFE6
:100A7000FE0EDBCFEAFF040EE926000EEA22EE505E
:100A80001016EE501116EE501216EE501316030EFD
:100A9000101805E1115003E1125001E1135002E179
:100AA000000E02D0010E00D0E552E7CFD9FF1200B0
:100AB000D9CFE6FFE1CFD9FFE652DF6AD950FB0F6D
:100AC000E96EFF0EDA20EA6EEECFE6FFEECFE6FF2C
:100AD000EECFE6FFEFCFE6FF73DBE552E552E552DE
:100AE000E552000920E0F60EDBCFE6FFF70EDBCF84
:100AF000E6FFF90EDBCFE6FFFA0EDBCFE6FFD950BB
:100B0000FB0FE96EFF0EDA20EA6EEECFE6FFEECFC6
:100B1000E6FFEECFE6FFEFCFE6FF97DA106E080EA6
:100B2000E15E1050A7D0F60EDBCFE6FFF70EDBCF6D
:100B3000E6FFD950FB0FE96EFF0EDA20EA6EEECF2A
:100B4000E6FFEECFE6FFEECFE6FFEFCFE6FFF8DA07
:100B5000106E060EE15E1050000968E0F60EDBCF65
:100B6000E6FFF70EDBCFE6FFF80EDBCFE6FFD9504E
:100B7000FB0FE96EFF0EDA20EA6EEECFE6FFEECF56
:100B8000E6FFEECFE6FFEFCFE6FF8EDA106E070E40
:100B9000E15E1050000925E0F60EDBCFE6FFF70E10
:100BA000DBCFE6FFDFCFE6FFF80EDBCFE6FFF90E87
:100BB000DBCFE6FFFA0EDBCFE6FFD950FB0FE96E85
:100BC000FF0EDA20EA6EEECFE6FFEECFE6FFEECFC5
:100BD000E6FFEFCFE6FF53D8106E0A0EE15E10502D
:100BE00024D0F60EDBCFE6FFF70EDBCFE6FFDFCF3C
:100BF000E6FFF80EDBCFE6FFF90EDBCFE6FFFA0EDD
:100C0000DBCFE6FFD950FB0FE96EFF0EDA20EA6E6C
:100C1000EECFE6FFEECFE6FFEECFE6FFEFCFE6FF4B
:100C2000DFD8106E0A0EE15E105024D0F60EDBCF36
:100C3000E6FFF70EDBCFE6FFDFCFE6FFF80EDBCFF8
:100C4000E6FFF90EDBCFE6FFFA0EDBCFE6FFD95069
:100C5000FB0FE96EFF0EDA20EA6EEECFE6FFEECF75
:100C6000E6FFEECFE6FFEFCFE6FF7BD9106E0A0E70
:100C7000E15E1050E552E552E7CFD9FF1200D9CF1F
:100C8000E6FFE1CFD9FF020EE126F70EDB50E76E5B
:100C9000010EE7CFDBFFFB0EDBCF10F0FC0EDBCF4E
:100CA00011F0FD0EDBCF12F0FE0EDBCF13F0060EBF
:100CB000D8901332123211321032E806F9E1F50EF3
:100CC000DBCFE9FFF60EDBCFEAFF030EE926000ECD
:100CD000EA2210C0EEFF11C0EDFFF50EDBCFE9FFF9
:100CE000F60EDBCFEAFF030EE926000EEA22EECF76
:100CF00014F0EFCF15F0060ED89014361536E8062E
:100D0000FBE1166A176A15AE02D016681768D9504B
:100D1000FB0FE96EFF0EDA20EA6E1450EE5C106EE7
:100D20001550EE58116E1650EE58126E1750EE58C0
:100D3000136EF50EDBCFE9FFF60EDBCFEAFF020EF6
:100D4000E926000EEA2210C0EFFFDF6AF80EDB5042
:100D5000DF5C3CE2010EDB50E76EF90EDBCFE9FF12
:100D6000FA0EDBCFEAFFE750E926000EEA22EF5049
:100D7000E66EF50EDBCFE9FFF60EDBCFEAFF020EE3
:100D8000E926000EEA22EF50106E116AF50EDBCF55
:100D9000E9FFF60EDBCFEAFF1050EE24E76E1150AC
:100DA000EE20EA6EE7CFE9FFE552E750EF6EF50E71
:100DB000DBCFE9FFF60EDBCFEAFF020EE926000EDD
:100DC000EA22EF2A010EDB2ADF2AC0D7020EE15CFD
:100DD00002E2E16AE552E16EE552E7CFD9FF120087
:100DE000D9CFE6FFE1CFD9FF050EE126400E106E08
:100DF000F50EDBCFE9FFF60EDBCFEAFF020EE926A8
:100E0000000EEA22EF50105CDF6EF50EDBCFE6FF3E
:100E1000F60EDBCFE6FFF70EDBCFE6FFDFCFE6FF18
:100E2000F90EDBCFE6FFFA0EDBCFE6FFD950FB0F62
:100E3000E96EFF0EDA20EA6EEECFE6FFEECFE6FFB8
:100E4000EECFE6FFEFCFE6FF1ADF106E0A0EE15E8F
:100E50001050F50EDBCFE6FFF60EDBCFE6FF79ECA8
:100E60000BF0E552E552000901E1F3D7F50EDBCFB7
:100E7000E9FFF60EDBCFEAFF020EE926000EEA22BA
:100E8000EF6AF50EDBCFE9FFF60EDBCFEAFF030ECC
:100E9000E926000EEA22EE2AEF22F50EDBCFE9FF6B
:100EA000F60EDBCFEAFF030EE926000EEA22EECFB4
:100EB00010F0EFCF11F0060ED89010361136E8067C
:100EC000FBE1126A136A11AE02D012681368010EB8
:100ED00010C0DBFF020E11C0DBFF030E12C0DBFFF0
:100EE000040E13C0DBFFF50EDBCFE6FFF60EDBCF03
:100EF000E6FFCAEC0BF0E552E552000901E1F3D739
:100F0000F50EDBCFE6FFF60EDBCFE6FFF70EDB508C
:100F1000DF24E66EF80EDB50D880DF54E66EF90E63
:100F2000DBCFE6FFFA0EDBCFE6FFD950010FE96E0B
:100F3000DACFEAFFEECFE6FFEECFE6FFEECFE6FF39
:100F4000EFCFE6FF9CDE106E0A0EE15E1050050E3C
:100F5000E15C02E2E16AE552E16EE552E7CFD9FFDA
:100F60001200D9CFE6FFE1CFD9FFF50EDBCFE6FFC8
:100F7000F60EDBCFE6FF79EC0BF0E552E552000907
:100F800001E1F3D7F50EDBCFE6FFF60EDBCFE6FF90
:100F9000CAEC0BF0E552E552000901E1F3D7FB0E74
:100FA000DBCF10F0FC0EDBCF11F0FD0EDBCF12F02B
:100FB000FE0EDBCF13F0060ED89013321232113230
:100FC0001032E806F9E1F50EDBCFE9FFF60EDBCFD4
:100FD000EAFF030EE926000EEA2210C0EEFF11C060
:100FE000EDFFF50EDBCFE9FFF60EDBCFEAFF020ED9
:100FF000E926000EEA22EF6AF50EDBCFE6FFF60ED9
:10100000DBCFE6FFF70EDBCFE6FFF80EDBCFE6FF28
:10101000F90EDBCFE6FFFA0EDBCFE6FFD950FB0F70
:10102000E96EFF0EDA20EA6EEECFE6FFEECFE6FFC6
:10103000EECFE6FFEFCFE6FF22DE106E0A0EE15E96
:101040001050E552E7CFD9FF1200D9CFE6FFE1CF2C
:10105000D9FFF70EDBCFE6FFF80EDBCFE6FF79EC2A
:101060000BF0E552E552000901E1F3D7F90EDBCFB1
:10107000E6FFFA0EDBCFE6FFD950FB0FE96EFF0E5D
:10108000DA20EA6EEECFE6FFEECFE6FFEECFE6FF28
:10109000EFCFE6FF6AEC0AF0106E060EE15E10502C
:1010A000E552E7CFD9FF1200D9CFE6FFE1CFD9FF54
:1010B000F80EDBCFE9FFF90EDBCFEAFF030EE926DE
:1010C000000EEA22EECF14F0EFCF15F0166A176A81
:1010D00015AE02D016681768FA0EDBCF10F0116A51
:1010E000126A136AD950FB0FE96EFF0EDA20EA6E1E
:1010F000EE501024046EEE501120056EEE501220BA
:10110000066EEE501320076E400E096E0A6A0B6AD7
:101110000C6A44EC0DF00450141809E10550151840
:1011200006E10650161803E10750171800E102E126
:10113000010E02D0000E00D0E552E7CFD9FF120019
:10114000D9CFE6FFE1CFD9FFF90EDBCFE9FFFA0EE9
:10115000DBCFEAFF030EE926000EEA22EECF10F005
:10116000EFCF11F0126A136A11AE02D01268136841
:10117000FB0EDBCF04F0FC0EDBCF05F0FD0EDBCF6A
:1011800006F0FE0EDBCF07F0400E096E0A6A0B6A0E
:101190000C6A44EC0DF00450101809E105501118C8
:1011A00006E10650121803E10750131800E102E1AE
:1011B000010E02D0000E00D0E552E7CFD9FF120099
:1011C000D9CFE6FFE1CFD9FFD950FB0FE96EFF0E73
:1011D000DA20EA6E000EEE5C000EEE58300EEE588D
:1011E000000EEE5802E3010E02D0000E00D0E552D0
:0611F000E7CFD9FF120059
:0A11F600C69AE66A010EE66E020ECC
:10120000E66E10EC0DF0E552E552E5521200D9CF32
:10121000E6FFE1CFD9FFFE0EDBCFE6FF68EC0DF075
:10122000E552020EE66ECCEC0DF0E552E552E7CF4A
:10123000D9FF1200D9CFE6FFE1CFD9FF030EE12697
:10124000FB0EDB50E76E020EE7CFDBFFD4DF010EB3
:10125000DB6AFC0EDB50F36E010EDBCFF4FFF350C4
:10126000F45C24E2020EDB50E76EFD0EDBCFE9FFFB
:10127000FE0EDBCFEAFFE750E926000EEA22EF5030
:10128000E66EC5DFE55286EC0DF0DF6E020EDB2A5E
:10129000D9CFE6FFDACFE6FFC5D9E552E55200091E
:1012A00002E1000E0BD0010EDB2AD3D7C69A010E45
:1012B000E66ECCEC0DF0E552010E00D0106E030E80
:1012C000E15C02E2E16AE552E16E1050E552E7CFDF
:1012D000D9FF1200D9CFE6FFE1CFD9FF020EE126F8
:1012E0008ADFFE0EDBCFE6FF92DFE55286EC0DF0E3
:1012F000DF6ED9CFE6FFDACFE6FF94D9E552E552AB
:10130000000902E1000E08D0C69A010EE66ECCEC90
:101310000DF0E552010E00D0106E020EE15C02E20B
:10132000E16AE552E16E1050E552E7CFD9FF1200B5
:10133000D9CFE6FFE1CFD9FF070EE126FD0EDBCFC7
:10134000E9FFFE0EDBCFEAFF030EE926000EEA22DC
:10135000EECF10F0EFCF11F0060ED8901036113608
:10136000E806FBE1126A136A11AE02D01268136834
:10137000030E10C0DBFF040E11C0DBFF050E12C010
:10138000DBFF060E13C0DBFF030EDB50DF6E030E28
:10139000DBCF10F0040EDBCF11F0050EDBCF12F027
:1013A000060EDBCF13F0080ED89013321232113232
:1013B0001032E806F9E1010E10C0DBFF030EDBCFAF
:1013C00010F0040EDBCF11F0050EDBCF12F0060E8D
:1013D000DBCF13F0100ED8901332123211321032CC
:1013E000E806F9E1020E10C0DBFFE66A030EE66EC6
:1013F000D9CFE6FFDACFE6FF1DDFE552E552E55231
:10140000E552000903E1000E03D002D0010E00D026
:10141000106E070EE15C02E2E16AE552E16E1050E7
:10142000E552E7CFD9FF1200D9CFE6FFE1CFD9FFD0
:10143000030EE126FB0EDB50DF6EFB0EDBCF10F060
:10144000FC0EDBCF11F0FD0EDBCF12F0FE0EDBCF7A
:1014500013F0080ED8901332123211321032E8060F
:10146000F9E1010E10C0DBFFFB0EDBCF10F0FC0E2C
:10147000DBCF11F0FD0EDBCF12F0FE0EDBCF13F051
:10148000100ED8901332123211321032E806F9E100
:10149000020E10C0DBFFE66A030EE66ED9CFE6FF50
:1014A000DACFE6FFC7DEE552E552E552E552000924
:1014B00003E1000E03D002D0010E00D0106E030E27
:1014C000E15C02E2E16AE552E16E1050E552E7CFDD
:1014D000D9FF1200D9CFE6FFE1CFD9FF330EE66E78
:1014E000F9DEE552000902E1000E2BD0D950FB0FC6
:1014F000E96EFF0EDA20EA6EEECFE6FFEECFE6FFF2
:10150000EECFE6FFEFCFE6FF8FDFE552E552E55283
:10151000E552000902E1000E14D0E66A010EE66E03
:10152000F90EDBCFE6FFFA0EDBCFE6FF83DEE552F6
:10153000E552E552E552000902E1000E02D0010E2B
:1015400000D0E552E7CFD9FF1200D9CFE6FFE1CFB7
:10155000D9FFE65250DEDF6AFC0EDB50DF5C17E29B
:10156000E66A55DEE55286EC0DF0E66EDF50E76E7A
:10157000FD0EDBCFE9FFFE0EDBCFEAFFE750E926E9
:10158000000EEA22E552E750EF6EDF2AE5D7C69A51
:10159000010EE66ECCEC0DF0E552010E00D0E552E6
:1015A000E552E7CFD9FF1200D9CFE6FFE1CFD9FF4F
:1015B000E65221DEE66A2BDEE55286EC0DF0DF6EA8
:1015C000C69A010EE66ECCEC0DF0E552FF0EDF5C24
:1015D00003E1010E03D002D0000E00D0E552E55227
:1015E000E7CFD9FF1200D9CFE6FFE1CFD9FFE6520E
:1015F000440EE66E6FDEE552010EE66ED9CFE6FFD1
:10160000DACFE6FFA2DFE552E552E552120EDF5CCB
:1016100002E0000E02D0010E00D0E552E552E7CF05
:10162000D9FF1200D9CFE6FFE1CFD9FFFD0EDBCF06
:10163000E9FFFE0EDBCFEAFFEF50A50803E1010E44
:1016400003D002D0000E00D0E552E7CFD9FF120040
:10165000D9CFE6FFE1CFD9FFFD0EDBCFE9FFFE0ECC
:10166000DBCFEAFF030EE926000EEA22FF0EEE189A
:1016700002E1FF0EED1805E10468056806680768D9
:1016800034D0FD0EDBCFE9FFFE0EDBCFEAFF030E09
:10169000E926000EEA22EECF14F0EFCF15F0060E89
:1016A000D89014361536E806FBE1FD0EDBCFE9FFD6
:1016B000FE0EDBCFEAFF020EE926000EEA22EF5013
:1016C00000011424106E000E1520116E126A136AA8
:1016D00011AE02D01268136810C004F011C005F0FA
:1016E00012C006F013C007F000D0E552E7CFD9FFD3
:1016F0001200D9CFE6FFE1CFD9FF110EE66E6AECFA
:1017000009F0E552000902E1000E40D0010EE66E3C
:10171000CCEC0DF0E552FD0EDBCFE6FFFE0EDBCF8D
:10172000E6FF98EC09F0E552E552000902E1000EEF
:101730002DD0010EE66ECCEC0DF0E552E66A400EBF
:10174000E66EFD0EDBCFE9FFFE0EDBCFEAFFEECF4C
:10175000E6FFEFCFE6FF1AEC09F0E552E552E5525D
:10176000E552000902E1000E11D0640EE66ECCECE9
:101770000DF0E552D4EC0AF0000906E1020EE66E27
:10178000CCEC0DF0E552F6D7010E00D0E552E7CFD4
:10179000D9FF1200D9CFE6FFE1CFD9FF400EE126F5
:1017A000D9CF10F0DACF11F0FD0EDBCFE9FFFE0E3E
:1017B000DBCFEAFF10C0EEFF11C0EDFF220EE66E98
:1017C0006AEC09F0E552000902E1000E29D0010E91
:1017D000E66ECCEC0DF0E552FD0EDBCFE6FFFE0E23
:1017E000DBCFE6FF98EC09F0E552E552000902E193
:1017F000000E16D0640EE66ECCEC0DF0E552400EF5
:10180000E66ED9CFE6FFDACFE6FFA5EC0AF0E552A7
:10181000E552E552000902E1000E02D0010E00D0AF
:10182000106E400EE15C02E2E16AE552E16E10509A
:10183000E552E7CFD9FF1200D9CFE6FFE1CFD9FFBC
:10184000FD0EDBCFE9FFFE0EDBCFEAFFEE50ED1021
:1018500002E1010E02D0000E00D0E552E7CFD9FF21
:02186000120074
:0E186200D9CFE6FFE1CFD9FFFB0EDBCFE6FFCB
:10187000FC0EDBCFE6FF2CEC05F0E552E55200094B
:1018800044E0FB0EDBCFE6FFFC0EDBCFE6FFE9EC2E
:1018900002F0E552E552F3CF10F0F4CF11F0F90E5B
:1018A000DBCFE9FFFA0EDBCFEAFF10C0EEFF11C07D
:1018B000EDFFF90EDBCFE9FFFA0EDBCFEAFFEECF4B
:1018C000E6FFEFCFE6FFFD0EDBCFE6FFFE0EDBCF40
:1018D000E6FFE4EC04F0E552E552E552E552F90E7C
:1018E000DBCFE9FFFA0EDBCFEAFFEECFE6FFEFCF6B
:1018F000E6FFFB0EDBCFE6FFFC0EDBCFE6FF7FEC67
:1019000003F0E552E552E552E552E552E7CFD9FF43
:021910001200C3
:0E1912000E0EF66E000EF76E000EF86E01015E
:101920000900F550B96F0900F550BA6F03E1B967C6
:1019300001D03DD00900F550B46F0900F550B56FE6
:101940000900F550B66F09000900F550E96E09006D
:10195000F550EA6E090009000900F550B76F09005B
:10196000F550B86F09000900F6CFBBF1F7CFBCF115
:10197000F8CFBDF1B4C1F6FFB5C1F7FFB6C1F8FFAE
:101980000101B75302E1B85307E00900F550EE6ECC
:10199000B707F8E2B807F9D7BBC1F6FFBCC1F7FF3C
:1019A000BDC1F8FF0101B907000EBA5BBFD7120035
:1019B000D9CFE6FFE1CFD9FFD38AD3A4FED7240E37
:1019C000AC6E900EAB6EBF0E946EB86AFD0EDB501F
:1019D000AF6E9D8A9D88E552E7CFD9FF1200D9CF1F
:1019E000E6FFE1CFD9FF9EA804D0FE0EDB50AD6E1E
:1019F000FAD7E552E7CFD9FF12009EAAFED7AECFA5
:101A0000BEF1BEC110F0116A126A136A10C004F070
:101A100011C005F012C006F013C007F000D012008C
:101A2000D9CFE6FFDACFE6FFE1CFD9FFE2CFDAFF89
:101A30003F0EC716C66AFD0EDB50C612FB0EDB500A
:101A4000C712FC0EDB50030A09E0010A04E0020A97
:101A500006E1C78C04D0C78CC68801D0C688FD0EAD
:101A6000DB50050A05E0010A05E19486928A03D05D
:101A7000948601D094969488949AC68AE552E5CFCC
:081A8000DAFFE7CFD9FF1200E5
:081A8800036A026A016A006AA8
:101A9000200EE76ED8900436053606360736003637
:101AA0000136023603360950005C0A5001580B50CB
:101AB00002580C50035809E30950005E0A50015ABD
:101AC0000B50025A0C50035A042AE72EE4D7120096
:101AD000D9CFE6FFDACFE6FFE1CFD9FFE2CFDAFFD9
:101AE000E652C950DF6E9E96C69EFD0EDB50C96E53
:101AF000C6AE02D0FF0E03D09EA6FED7000EE55262
:0C1B0000E552E5CFDAFFE7CFD9FF120075
:041B0C00D9CFE6FF48
:101B1000DACFE6FFE1CFD9FFE2CFDAFFE652C950D4
:101B2000DF6E9E96C96A9EA6FED7C950E552E55261
:0A1B3000E5CFDAFFE7CFD9FF12007E
:061B3A00D9CFE6FFE1CF68
:101B4000D9FF050EE12695968396E15C02E2E16AF3
:0C1B5000E552E16EE552E7CFD9FF12002C
:041B5C00000EF36E16
:101B600000EE00F0060E01D81200EA6002D0EE6A24
:0C1B7000FCD7F350E9601200EE6AFCD7CD
:041B7C0015EE00F072
:101B800025EE00F0F86A0F9C89EC0CF003EC00F0F5
:081B90009DEC0DF0FBD71200E3
:081B9800FF0EE350E84E1200BD
:0E1BA000000000D000D000D0E82EFAD71200CE
:021BAE00000134
:0F1BB000500100000000000000000000000000D5
:020000040030CA
:0100010008F6
:010002001EDF
:010003001EDE
:0100060001F8
:00000001FF
