:020000040000FA
:06000000BAEF02F012004D
:020006001200E6
:060008000EEF00F01200F3
:02000E000100EF
:0C001000A6050000A20500000E00000084
:04001C00DACFE4FF54
:10002000E2CFDAFFE9CFE4FFEACFE4FFF6CFE4FF67
:10003000F7CFE4FFF5CFE4FFF3CFE4FFF4CFE4FF25
:10004000FACFE4FF00EE00F00B0EE80403E3EECF7E
:10005000E4FFFBD700EE0BF0040EE80403E3EECF61
:10006000E4FFFBD7E6529EBA24D8E55200EE0EF02C
:10007000040EE80403E3E5CFEDFFFBD700EE0AF042
:100080000B0EE80403E3E5CFEDFFFBD7E5CFFAFF66
:10009000E5CFF4FFE5CFF3FFE5CFF5FFE5CFF7FFC1
:1000A000E5CFF6FFE5CFEAFFE5CFE9FFE5CFDAFFE1
:1000B000110097EC02F004C0A0F50501A60503E0CD
:1000C000110EA65D03E10501A16B06D0100EA65D21
:1000D00003E10501010EA16FA70EE66E050EE66EA7
:1000E00003D8E552E5521200D9CFE6FFE1CFD9FFA0
:1000F000FD0EDBCFE9FFFE0EDBCFEAFFEF50020A79
:1001000001E1B2D0030A4EE0010A01E078D1050115
:10011000A151E96EEA6AD890E936EA36A20EE926DC
:10012000050EEA22EECF0BF0EFCF0CF0FD0EDBCF89
:10013000E9FFFE0EDBCFEAFFEE520B50EE24E76E36
:100140000C50EE20EA6EE7CFE9FFA0C5EFFFA1510A
:10015000E96EEA6AD890E936EA36A20EE926050E7B
:10016000EA22EECF0BF0EFCF0CF0FD0EDBCFE9FF74
:10017000FE0EDBCFEAFFEE520B50EE24E76E0C5082
:10018000EE20EA6EE7CFE9FFEF50E66E89EC02F071
:10019000E552FD0EDBCFE9FFFE0EDBCFEAFF010EDD
:1001A000EF6E2DD10501A151E96EEA6AD890E936CA
:1001B000EA36A20EE926050EEA22EECF0BF0EFCFCB
:1001C0000CF0FD0EDBCFE9FFFE0EDBCFEAFFEE52B7
:1001D0000B50EE24E76E0C50EE20EA6EE7CFE9FFFD
:1001E000A0C5EFFFA151E96EEA6AD890E936EA3678
:1001F000A20EE926050EEA22EECF0BF0EFCF0CF0AF
:10020000FD0EDBCFE9FFFE0EDBCFEAFFEE520B5017
:10021000EE24E76E0C50EE20EA6EE7CFE9FFEF50D8
:10022000E66E89EC02F0E552A0C50BF00C6A0D6A8F
:100230000E6AFD0EDBCFE9FFFE0EDBCFEAFF050EF7
:10024000E926000EEA220BC0EEFF0CC0EEFF0DC047
:10025000EEFF0EC0EEFFFD0EDBCFE9FFFE0EDBCFA3
:10026000EAFF020EEF6ECBD0010E0B6E0C6A0D6A28
:100270000E6AFD0EDBCFE9FFFE0EDBCFEAFF050EB7
:10028000E926000EEA22EE500B26EE500C22EE502C
:100290000D22EE500E22FD0EDBCFE9FFFE0EDBCF6E
:1002A000EAFFEE520B50EE5C0C50EE580D50EE583B
:1002B0000E50EE584BE20501A151E96EEA6AD89062
:1002C000E936EA36A20EE926050EEA22EECF0BF059
:1002D000EFCF0CF0FD0EDBCFE9FFFE0EDBCFEAFF28
:1002E000EE520B50EE24E76E0C50EE20EA6EE7CF94
:1002F000E9FFA0C5EFFFA151E96EEA6AD890E9369F
:10030000EA36A20EE926050EEA22EECF0BF0EFCF79
:100310000CF0FD0EDBCFE9FFFE0EDBCFEAFFEE5265
:100320000B50EE24E76E0C50EE20EA6EE7CFE9FFAB
:10033000EF50E66E89EC02F0E552FD0EDBCFE9FFEF
:10034000FE0EDBCFEAFF020EEF6E58D00501A605C8
:1003500003E0110EA65D03E1100EA66F06D0100E8D
:10036000A66FA65102E0010EA66F0501A151E96E2C
:10037000EA6AD890E936EA36A20EE926050EEA22A4
:10038000EECF0BF0EFCF0CF0FD0EDBCFE9FFFE0E52
:10039000DBCFEAFFEE520B50EE24E76E0C50EE205E
:1003A000EA6EE7CFE9FFA0C5EFFFA151E96EEA6A67
:1003B000D890E936EA36A20EE926050EEA22EECFFB
:1003C0000BF0EFCF0CF0FD0EDBCFE9FFFE0EDBCF25
:1003D000EAFFEE520B50EE24E76E0C50EE20EA6E70
:1003E000E7CFE9FFEF50E66E89EC02F0E552FD0E33
:1003F000DBCFE9FFFE0EDBCFEAFFEF6A00D0FD0E98
:10040000DBCFE9FFFE0EDBCFEAFFEF500CE1FD0E84
:10041000DBCFE9FFFE0EDBCFEAFFEE52EE6AEE6ABB
:10042000EE6AEE6A0CD0FD0EDBCFE9FFFE0EDBCFED
:10043000EAFFEE52EE2A000EEE22EE22EE22E55206
:06044000E7CFD9FF120016
:0A0446000E0EF66E000EF76E000EAB
:10045000F86E05010900F550B56F0900F550B66F4B
:1004600003E1B56701D03DD00900F550B06F090038
:10047000F550B16F0900F550B26F09000900F55051
:10048000E96E0900F550EA6E090009000900F5500F
:10049000B36F0900F550B46F09000900F6CFB7F546
:1004A000F7CFB8F5F8CFB9F5B0C5F6FFB1C5F7FF8E
:1004B000B2C5F8FF0501B35302E1B45307E00900E8
:1004C000F550EE6EB307F8E2B407F9D7B7C5F6FFFB
:1004D000B8C5F7FFB9C5F8FF0501B507000EB65B53
:0404E000BFD7120070
:0C04E400D9CFE6FFE1CFD9FFD38AD3A423
:1004F000FED7240EAC6E900EAB6EBF0E946EB86A33
:10050000FD0EDB50AF6E9D8A9D88E552E7CFD9FF87
:100510001200D9CFE6FFE1CFD9FF9EA804D0FE0E8E
:10052000DB50AD6EFAD7E552E7CFD9FF12009EAA95
:10053000FED7AECFBAF5BAC50BF00C6A0D6A0E6ADB
:100540000BC004F00CC005F00DC006F00EC007F0A3
:0405500000D01200C5
:0C055400000EF36E00EE00F0060E01D861
:100560001200EA6002D0EE6AFCD7F350E960120094
:04057000EE6AFCD75C
:0C05740014EE00F024EE00F0F86A0A9C7F
:1005800023EC02F003EC00F0C8EC02F0FBD7120001
:10059000190EE66EE66A72EC02F0E552E552F28E52
:0605A000F28CFFD71200EF
:0A05A60000055005110000000000E0
:0405B0000000000047
:020000040030CA
:0100010008F6
:010003001EDE
:0100060001F8
:00000001FF
